:020000040000FA
:10000000021305022003FFFFFFFFFF02200BFFFF8B
:10001000FFFFFF020E67FFFFFFFFFF02201BFFFF36
:10002000FFFFFF022023FFFFFFFFFF02202BFFFF48
:10003000FFFFFF022033FFFFFFFFFF020EAAFFFFBB
:10004000FFFFFF022043FFFFFFFFFF02204BFFFFE8
:10005000FFFFFF022053FFFFFFFFFF02205BFFFFB8
:10006000FFFFFF022063FFFFFFFFFF02206BFFFF88
:10007000FFFFFF022073FFFFFFFFFF02207BFFFF58
:10008000FFFFFF022083FFFFFFFFFF02208BFFFF28
:10009000FFFF70DFFFFF040000000002000000C847
:1000A0000300030369A5020269A501000000000026
:1000B00004003273000074F812104C900393E06057
:1000C0001590030274FEF0900304744DF0A37405C0
:1000D000F07A0112068C7F0102116974F712104C3C
:1000E00074FF1212717E00801F851882851983E0CB
:1000F00064FE70069003877401F085188285198369
:10010000E0F8900384E068F07C017D00AA18AB1948
:10011000120E228B09EA450970030201F385188249
:10012000851983E064EF70027E07E0C0E0900387EA
:10013000E0FA900385E0F8EA28F8E43400F9740264
:1001400028F582740339F583D0E0F0900387E060EE
:100150009814600E14602C14603C14605214606893
:100160008098900384E4F0851882851983E09003D9
:1001700086F0C394809003874004E40200F974027F
:100180000200F9851882851983E0900382F09003BC
:100190008774030200F9851882851983E090038330
:1001A000F0900386E0601990038774040200F990D0
:1001B0000385E004F0F8900386E06860030200FA2B
:1001C00090038774050200F9900385E4F09003879B
:1001D000F0900384E0F8851882851983E068600355
:1001E0000200FA900382E0644D60030200FA1203F9
:1001F000288002EEF9740112123D7F020211697427
:10020000F712104C74FB121271EAFEEBFF75080432
:1002100075090078081212D574021212EE7A907BDA
:10022000007904120ECB740212123D12067E1213D4
:100230003FE0687003A3E069701285188285198316
:10024000E0F47003A3E0F4600302030874041212E4
:10025000E61206E48A088B09A808A9097402121399
:100260003FE8F0A3E9F0740412133FE0600879015D
:100270001200B6020321851882851983E068700395
:10028000A3E0697076851882851983E0F47003A372
:10029000E0F47019740212133F7410F0A37420F08C
:1002A0008518828519837410F0A37420F0750801F5
:1002B00075090078081212D574021212EE7A247BA6
:1002C00008120F4F740212123D75080478081212BA
:1002D000D574021212EE7A907B007904120ECB7460
:1002E0000212123D12067E12133FE0687003A3E073
:1002F000697004790280067904800279031200B6DD
:100300008E828F83741E80058E828F83E4F01206A6
:100310007E12133FE0687003A3E0697004790180E6
:1003200002790074050201F774E912104C74F81296
:100330001271900307E0FA900306E0F9FEEAFCE48C
:10034000CCFDEE2CED3408FF751001750F00750E15
:10035000068E088F097402780812129CC39508FC57
:10036000E49509FD74022CF51474033DF515E514AC
:100370002497F516E5153420F517EE2410F508E45A
:100380003FF509EEF50CEF5401F50D8E128F137445
:100390000978121212F685120A900383E01460574E
:1003A00014700302046F1470030204E61460102436
:1003B000FE70030205A11470030206510206617566
:1003C0000E03794E120C619003071206747402F04A
:1003D000A374401206727408120672F0A3F0741827
:1003E000C3940704F510AA10A90F12068CA90E7465
:1003F0000812123D02083E750E04794E120C61EE91
:10040000450D7005A90A120FB5C3EE9425EF9408A7
:10041000503FC3E5089424E50994084034E51424CA
:1004200096F8E5153420F988828983E0701E8516D8
:1004300082851783E070159003887401F0888289A3
:100440008374A5F08516828517838004900388E461
:10045000F075081075090078081212D57C087D0324
:10046000EEFAEFFB120F4F740212123D0203E67513
:100470000E05C3E50A947995E04006750F01020365
:10048000E675104075110078101212D57C097D03B5
:100490007402780C12129CAA0CAB0DA90A120ECB96
:1004A000740212123D900307E0A3F0900306E0A34C
:1004B000F0751043C3EE9425EF940840030203E661
:1004C000C3E5089424E509940850030203E6900369
:1004D00088E070030203E6A816A91788828983E4DE
:1004E000F0A3F00203E675080475090078081212FB
:1004F000D574021212EE7A907B007904120ECB743E
:100500000212123D740212133FE0F8A3E0F98518BD
:1005100082851983E0687003A3E0698518828519D4
:1005200083700BE0F47003A3E0F470578009E0F4EB
:100530007003A3E0F4700D8518828519837410F0A0
:10054000A37420F012067E12133FE8F0A3E9F075C1
:10055000080178081212D574021212EE7A247B0870
:10056000120F4F740212123D75080478081212D54A
:1005700074021212EE7A907B007904120ECB740290
:1005800012123D12067E12133FE0687003A3E06969
:100590007006750E010203E6750E02750F07020361
:1005A000E6900391E06007640260030203E6EAFF5D
:1005B0007A01790012068CE060030206458003127E
:1005C0000D22120D2CE970F7740412133F12066607
:1005D000740412133F780812132385080C85090D43
:1005E000850A0E850B0F9005A2780C1212C27404B6
:1005F00012133F780C121314E5084509450A450B00
:1006000070CE8EC2E5C554E04FF5C5740412133F99
:10061000120666740412133F780812132385080C1F
:1006200085090D850A0E850B0F9005A2780C121214
:10063000C2740412133F780C121314E508450945DF
:100640000A450B70CE7A01790012068C79080203F4
:10065000EFE9900393F070030203E6750E090203BD
:10066000E679060203EFE4F0A37426F0A3E4F0A316
:10067000F022F0A3E4F0A3F0A3F0A3F0A3228518E6
:1006800082851983E0F8A3E0F974022274F812104D
:100690004CEAFE900305E0D2E7F0E9A3F0EE900308
:1006A00003F08E0874042AFE7C028004E062080CC9
:1006B000ECFA3395E0FB74022AF58274033BF58370
:1006C000EEF8C3EA98EB9400A2D265D03340DDE5A2
:1006D00008F074012A0C3395E0FD7A027B03120EB8
:1006E000520200D674E912104C7582007583FE1216
:1006F00012048A168B177514007515008A828B8375
:10070000E4F0900391E07006D2AAD2AF80046402B4
:10071000700579001200B6750C00750D20750E007D
:10072000750F00900391E0600464027015120D22B1
:100730001200DBE9F87409686003020814790012FA
:1007400000B675080075090278081212D5740212F5
:1007500012EE850C08850D09AA08E5095407FB85EA
:100760000E0A850F0B740B7808121258A908120E86
:10077000CB740212123D7E007F009005AAC0828ECB
:1007800010EFF5113395E0F512F513850C08850D82
:1007900009850E0A850F0B780879101212AF9005A3
:1007A000A678081212C2758305D08278081211E566
:1007B000501D851882851983E5822EF582E5833FD9
:1007C000F583E0F9AA14AB151208438A148B150EB1
:1007D000EE70010FC3EF940240A09005AE780C12AA
:1007E00012C29005B2780C1211E54003020723797A
:1007F00000AA14AB1512084379001208438B159018
:100800000391E07004C2AFC2AAEA451570277AA529
:100810007BA58021E870030207427406687003021A
:1008200007427407687003020742851682851783A2
:100830007401F080BA7582007583021212047F1071
:10084000021169C008C0097C088A088B09740F78F6
:10085000081212F6E508F8EA25E0FAEB33FBE9A204
:10086000E7500474014AFAE8A2E0500874216AFAD9
:1008700074106BFBE9C333F91CEC70CDD009D008C0
:100880002274F812104C78007900802274942EF5AE
:1008900082E43403F583E08A828B83F0900414129F
:1008A0000A014005900414E4F008E870010990047E
:1008B00014E0FEA3E06E6007C3E89CE99D40CDE82C
:1008C000FAE9FB7F0102116974F712104C90049849
:1008D000E0F509A3E0F508F8E509C398F895E0F913
:1008E000E508C39509E8500B120AE3701178007906
:1008F00000801B247F500109C39CE99D50EF7A00C2
:100900007B008041E004F0D2E908E8700109C3E807
:100910009CE99D502C8A828B83E0C0E0900499E092
:10092000FE74182EF582E43404F583D0E0120AD365
:1009300090049AE4F0900499E0C3947F40C6E48068
:10094000C5E8FAE9FB7F02021169C082C083C2E9EF
:10095000900498E0F8A3E0686017741828F582E422
:100960003404F583E0F5C1900498120AFA4002E4D9
:10097000F0020D4074F812104C7800790090051DBB
:10098000E07055A3E0705175F900C28FC284A28354
:1009900040FCA28F4004A28350F8AEF9C28FA2831C
:1009A0005004D2848032EEC0E0E0FE1209F6D0E0BE
:1009B000F090051E120AFA40D9E4F080D51209F62B
:1009C000E08A828B83F090051D120A014005900594
:1009D0001DE4F008E870010990051DE0FEA3E06E3B
:1009E0006007C3E89CE99D40D4E8497006E4F090B4
:1009F000051DF00208BF749D2EF582E43404F583D2
:100A000022E004120AD7C394802274F812104C908A
:100A100005A0E0FEF890059FE0FFEEC39FE0500DBB
:100A2000C398F895E0F9120AE270188012C398F89A
:100A300095E0F9E8247F500109C39CE99D4004EC4E
:100A40004D70077A007B00020AD08A828B83E0F522
:100A5000F9A3AA82AB83780179008008E004F0084A
:100A6000E8700109C3E89CE99D50278A828B83E0E6
:100A7000C0E09005A0E0FE741F2EF582E43405F579
:100A800083D0E0120AD39005A0E0C3947F40CDE468
:100A900080CCC28FA28340FCC284A28F4004A28378
:100AA00050F890059F120AEDE0F5F9C28F90059F6E
:100AB000E0FAA3E06A90059F7005120AED80051226
:100AC0000AFA4002E4F0A28350D0D284E8FAE9FBAB
:100AD0000208C3120AD722F08A828B83A3AA82ABB0
:100AE0008322E824FF18E934FFF9E84922E0FA7488
:100AF0001F2AF582E43405F58322E004F0C39480D4
:100B00002274FB121271C2009005CA7808121323D6
:100B10009005CA7401F0A3F0A37469F0A374A5F062
:100B20009005B678081212877004D20080159005DF
:100B3000BA78081212876008E59D54186410700393
:100B4000022000120C87A2005003020C04AA18AB6A
:100B5000191201FFE97003020C04851882851983BC
:100B6000E0C3943C500CE0F8743CC398FA95E0FB69
:100B700080047A007B00120D45E97003020C04909A
:100B80000391E06401700C75F800C2AB539AF7D280
:100B9000EA805E79071200B68003120D22120D2C36
:100BA000E970F7740112133FE4F0A37426F0A3E494
:100BB000F0A3F0740112133F780812132385080C78
:100BC00085090D850A0E850B0F9005A2780C12126F
:100BD000C2740112133F780C121314E5084509453D
:100BE0000A450B70CE758600C2AAC28B539AFBC20F
:100BF000E990000174CDF0022000C2AF75C9AB7559
:100C0000C95B80FE750800750900750A00750B0048
:100C1000900391E0701BD2AAD2AF79051200B6E022
:100C20007003120D221200DBE9F874096870098064
:100C3000E9794E120C6180ED74016870E2E0701782
:100C4000120D229005BE78081212C29005C27808D3
:100C50001211E550EBC2AAC2AF75C9AB75C95B8072
:100C6000FEC082C08378109005A1E0C3995015752D
:100C7000B60FE5B4A2E750FAE5BBC39940F118E816
:100C800070EDE9F0020D40C082C08353BEFBE59DCC
:100C9000A2E650FA0078F8790100120AE270FA75BB
:100CA000C6807480659E70FA43BE049062707408BA
:100CB000F0794A120C6190000174F5F07403F5D5D7
:100CC00075D489A2A0E433900391F0A2E05029D218
:100CD0008453F3F753F3EF53FDF743FD10538FF7AE
:100CE00053F7DF43FC2043F10253F5DF75F820434F
:100CF000F4F0D2FED2AB802853FF3F85FFFF53F1C3
:100D0000FE43F30C53F2F375868075C48090049B08
:100D1000E4F0A3F075C2D875C50B75C402438640D4
:100D2000801E800312094AA2E940F922C082C083D2
:100D3000900498E0F8A3E0686004790180027900EB
:100D4000D083D0822274F112104C74FF1212717E83
:100D500000900391E06401706CC28490039274016E
:100D6000F07508388E098E0A8E0B7C017D00AA185A
:100D7000AB19120E228B0DEA450D6018851882857D
:100D80001983E06410602DE064EF70088E088E090E
:100D90008E0A8E0B85080C85090D850A0E850B0FB2
:100DA0009005A278081212C2E50C450D450E450FBC
:100DB00070347E01900391E064017056D2849003F8
:100DC00092E4F08051D2AAD2AF8A088B09E4F50AE6
:100DD000F50B9005C6780C1213237808790C120FC6
:100DE000CC79061200B6900391E06003020D6A12FE
:100DF0000D221200DBE9F874096870077906120009
:100E0000B680917407686084E8608974066870A48D
:100E10008082C2AFC2AAEEF9740112123D7F0802AD
:100E20001169C082C083900391E07005120881802F
:100E30001E900392E06015A28F500BE5F98A828B19
:100E400083F07A0180027A007B0080031209740229
:100E50000D40C082C083900391E070051208C880E5
:100E600003120A0A020D40C0E074F21210B29000A0
:100E700001E064CD7005122013802AE064F570242F
:100E8000E5C1C28BC0E0900415E0F8749428F582A7
:100E9000E43403F583D0E0F0900415120AFA40051B
:100EA000E4F08001007F01021111C0E074F2121021
:100EB000B2900001E064CD700512203B800BE0642D
:100EC000F5700512094A80010080DA74F612104CA0
:100ED000890A740F550AF508750900740B78081211
:100EE000129CEA2400F8EB3480F9E82400E9350983
:100EF000F985C709A2AFE433F508C2AFE50AC454C7
:100F00000FFAE5C754F84AF5C7740A12133FE0FA1E
:100F1000A3E0FB801C88828983E08C828D83F0882B
:100F2000828983A3A882A9838C828D83A3AC82AD9E
:100F300083EAFEEBFFEE24FF1AEF34FFFBEE4F7067
:100F4000D48509C7E508A2E092AF7F030211697456
:100F5000F712104CED900389F0ECA3F0A37462F04B
:100F6000A37473F0A3E0541FF0740912133FE0F56B
:100F700008A3E0F509E508333354FC90038EF074C0
:100F80000678081212F6E50890038DF090038F742E
:100F900012F0A37442F075D1FE75D601EA90627129
:100FA000F0EBA3F0906270E0D2E1F0E0A2E740FB4A
:100FB0007F02021169C082C083E9C333906272F07C
:100FC000906270E0D2E0F0D083D08222080808EA74
:100FD000C0E0EBC0E086F0E7A4FA180986F0E7A4C9
:100FE0002AFA180986F0E7A42AFA180986F0E7A475
:100FF0002AFA1986F0E7A4FBE5F02AFA190886F028
:10100000E7A42BFBE5F03AFA190886F0E7A42BFBDE
:10101000E5F03AFA18180986F0E7A4C5F02BFBE4CE
:101020003AFA1908E7C5F0C6A426F6E5F03BFBE45A
:101030003AFA1886F0E7A4F6E5F00826F6E43B084D
:10104000F6E43A08F6D0E0FBD0E0FA222518C58293
:10105000C0E0E51934FFC583C0E0E518C3958224DC
:10106000F910AF0885831985821880088583198552
:101070008218D2AFCEF0A3E520F0A37808E608F0FE
:10108000A3DEFAEFF0A3E58124FBF8E608F0A3E67F
:1010900008F0A30808E608F0A3E608F0A3158115F8
:1010A00081D0E0FED0E0F815811581E8C0E0EEC007
:1010B000E022C0D02518C582C0E0E51934FFC58301
:1010C000C0E0E518C3958224F310AF088583198525
:1010D00082188008858319858218D2AFC8F0A3E9E9
:1010E000F0A3EAF0A3EBF0A37908E709F0A3D8FA9C
:1010F000ECF0A3EDF0A3EEF0A3EFF0A3D0E0F0A3AB
:10110000D0E0F0A3D0E0F0A3E520F0A3E5F0F0A359
:1011100022851983851882E0C0E0A3E0F9A3E0FAF4
:10112000A3E0FBA37808E0F608A3DFFAE0FCA3E065
:10113000FDA3E0FEA3E0FFA3E0C0E0A3E0C0E0A3C6
:10114000E0F5D0A3E0F520A3E0A3F5F010AF08850B
:1011500083198582188008858319858218D2AFD0BB
:1011600082D083D0E0F8D0E032851983851882E000
:10117000A3FEE0A3F5207808E0A3F608DFFAE0A3D9
:10118000FFE0A3C0E0E0A3C0E0E0A3C0E0E0A3C0B4
:10119000E010AF088582188583198008858218853C
:1011A0008319D2AFD083D08222E490030278A17950
:1011B000038002F0A3D8FCD9FA7AA27B0590008EB6
:1011C000782979018015E493A3AD82AE838A828B5E
:1011D00083F0A3AA82AB838D828E83D8E9D9E712EC
:1011E0000B01121349C008C3E096F50808A3E09666
:1011F000420808A3E096420808A3E096450870015B
:10120000D3D00822C5822518C582C583351910AFF1
:1012100007F5198582188007F519858218D2AFC5A0
:1012200083222518F58210AF08F518400C15198097
:1012300008F51840021519D2AF8519832200C0D0D5
:10124000251810AF08F518500C05198008F518502E
:10125000020519D2AFD0D0226016080808C6C31301
:10126000C618C613C618C613C618C613C6D5E0EAF4
:1012700022251810AF08F518400C15198008F5182C
:1012800040021519D2AF22E066701008A3E0667024
:101290000A08A3E066700408A3E0662270042260D6
:1012A0000D18C6C333C608C633C6D5E0F41822E607
:1012B00027F60809E637F60809E637F60809E6379B
:1012C000F622E026F608A3E036F608A3E036F60894
:1012D000A3E036F62274028000C0E0F40412122269
:1012E000D0E0121332222518FAE43519FB22251812
:1012F000FCE43519FD22600C08C6C313C618C613DA
:10130000C6D5E0F42275D00075813F7518027519B5
:10131000030211A9E6F008A3E6F008A3E6F008A38B
:10132000E6F022E0F608A3E0F608A3E0F608A3E062
:10133000F622CAC0E0E6F0A308DAFAD0E0FA2225E5
:1013400018F582E43519F5832200000080FBFFFFC9
:10135000FFFFFFFFFFFFFFFFFFFFFFFFFFFFFFFF9D
:10136000FFFFFFFFFFFFFFFFFFFFFFFFFFFFFFFF8D
:10137000FFFFFFFFFFFFFFFFFFFFFFFFFFFFFFFF7D
:10138000FFFFFFFFFFFFFFFFFFFFFFFFFFFFFFFF6D
:0A1FF600CA05094338860000000008
:020000040003F7
:01FFF000F020
:020000040000FA
:10200000022C7A02221AFFFFFFFFFFFFFFFFFFFFF4
:10201000FFFFFFFFFFFFFFFFFFFFFFFFFFFFFFFFD0
:10202000FFFFFFFFFFFFFFFFFFFFFF022A06FFFF8B
:10203000FFFFFFFFFFFFFFFFFFFFFFFFFFFFFFFFB0
:10204000FFFFFF022775FFFFFFFFFFFFFFFFFFFFFF
:10205000FFFFFF022154FFFFFFFFFFFFFFFFFFFF16
:10206000FFFFFFFFFFFFFFFFFFFFFF022920FFFF32
:10207000FFFFFFFFFFFFFFFFFFFFFFFFFFFFFFFF70
:10208000FFFFFF0221AB01FFFFFFFFFFFFFFFFFF8D
:10209000102010200100F0FF0700080000FFFF00E3
:1020A00000030400000F0100000300019651180016
:1020B0000200001932000000007D319D32E93161DB
:1020C000320000A73100000000000000000000B353
:1020D0003100000000000000000000BF3106FFFFDB
:1020E000FF010400008E17000000E8030000FFFF5E
:1020F0005E18018813000003E80300006400640018
:10210000B801A0BB0D00A0BB0D0002020207040134
:102110000101051E02051E020A0A01010108090843
:102120000103B80B02803E0102FEFFE8030A05002E
:1021300001FFFF0A011401E00105030101FF0F1077
:10214000FEFF924E00000000C84D00000000FF009E
:102150000000FF00C0E074F2122595A2AFE433F551
:1021600008D2AFAFA7AEA1EE5F54106006122EEFFB
:1021700075A1EFEE5F54086008122EF575A1F78087
:1021800023EEA2E092F0EFA2E082F0501790619867
:10219000E0F890066BE0C398A2D265D0335002E815
:1021A000F075A1FE751A00E5088066C0E074F212B1
:1021B0002595A2AFE433FED2AF9061A4E0F8759B01
:1021C00000E59158540860087591F7122F43802359
:1021D000E59158541060087591EF122F498014E56D
:1021E00091A2E092F0E8A2E082F05007E0C2E0F0B5
:1021F0001230AB9061A3E0F8E5E9585404600E1288
:10220000308175E9FB906193E0A2E640F2751A0017
:10221000EEA2E092AF7F010225F4C0E074F2122535
:1022200095A2AFE433FED2AF9061A5E0F8E5BF58C8
:102230005404600675BFFB1230C380D1C3E498F824
:10224000E499F912227D8026C3E49AFAE49BFBE923
:1022500020E7E912227DE498F8E499F922C3E49892
:10226000F8E499F912227DE498F8E499F9C3E49A24
:10227000FAE49BFB22EB20E7CFE920E7E0B900106E
:10228000BB0008E88AF084F8AAF022E4FBC8FA222E
:10229000EB70227B10C833C8C933C9335007C39AC7
:1022A000C3DBF280069A50012ADBEAC833F4C8C9BE
:1022B00033F4C9FA2275F008E4C833C8C933C93306
:1022C000C99AC99B5004C92AC93BD5F0ECFBC83355
:1022D000F4C8E4C9FA2274F512252F74FA122AED13
:1022E0007508047509007808122A467404122AB782
:1022F0007AF87B077903122DC37402122A59908150
:10230000447808122CA87402122CFF7808122B189B
:1023100070487508027509007808122A467402127E
:102320002AB77AF67B077903122DC37402122A5951
:10233000851882851983E0F47003A3E0F4601B859F
:102340001882851983E0F8A3E08882F5837402F08F
:10235000A3F0A37469F0A374A5F0C2AF75D69F0271
:1023600000007406122A597F040227B8080808EAF8
:10237000C0E0EBC0E086F0E7A4FA180986F0E7A415
:102380002AFA180986F0E7A42AFA180986F0E7A4C1
:102390002AFA1986F0E7A4FBE5F02AFA190886F074
:1023A000E7A42BFBE5F03AFA190886F0E7A42BFB2B
:1023B000E5F03AFA18180986F0E7A4C5F02BFBE41B
:1023C0003AFA1908E7C5F0C6A426F6E5F03BFBE4A7
:1023D0003AFA1886F0E7A4F6E5F00826F6E43B089A
:1023E000F6E43A08F6D0E0FBD0E0FA22E4CFC0E011
:1023F000E4CEC0E0E4CDC0E0E4CCC0E075F020E67F
:1024000026F608E633F608E633F608E633F618183B
:1024100018EC33FCED33FDEE33FEEF33FFC3EC97E6
:1024200009ED9709EE9709EF97191919400FFFEC7D
:1024300097FC09ED97FD09EE97FE191906D5F0BF37
:10244000ECF709EDF709EEF709EFF7191919D0E0E4
:10245000FCD0E0FDD0E0FED0E0FF222518C582C010
:10246000E0E51934FFC583C0E0E518C3958224F880
:1024700010AF0885831985821880088583198582A5
:1024800018D2AFCEF0A3E520F0A37808E608F0A3B9
:10249000DEFAEFF0A3E58124FAF8E608F0A3E608F7
:1024A000F0A3E608F0A30808E608F0A3E608F0A306
:1024B00015811581D0E0FED0E0F8158115811581D8
:1024C000E8C0E0EEC0E022122CF4B90003022519A6
:1024D000E49004017871791A8002F0A3D8FCD9FA4B
:1024E000781A9020867A01BA00028007E493A3F656
:1024F00008DAF97A717B1D90209478C179018015F2
:10250000E493A3AD82AE838A828B83F0A3AA82ABCD
:10251000838D828E83D8E9D9E77582FC75837D74BB
:10252000001229E87582C375834B74001229E825CF
:1025300018C582C0E0E51934FFC583C0E0E518C3C3
:10254000958224F910AF0885831985821880088543
:102550008319858218D2AFCEF0A3E520F0A37808C6
:10256000E608F0A3DEFAEFF0A3E58124FBF8E60825
:10257000F0A3E608F0A30808E608F0A3E608F0A335
:1025800015811581D0E0FED0E0F815811581E8C0F5
:10259000E0EEC0E022C0D02518C582C0E0E51934C5
:1025A000FFC583C0E0E518C3958224F310AF08850A
:1025B00083198582188008858319858218D2AFC84F
:1025C000F0A3E9F0A3EAF0A3EBF0A37908E709F0A0
:1025D000A3D8FAECF0A3EDF0A3EEF0A3EFF0A3D0B4
:1025E000E0F0A3D0E0F0A3D0E0F0A3E520F0A3E575
:1025F000F0F0A322851983851882E0C0E0A3E0F9FA
:10260000A3E0FAA3E0FBA37808E0F608A3DFFAE072
:10261000FCA3E0FDA3E0FEA3E0FFA3E0C0E0A3E095
:10262000C0E0A3E0F5D0A3E0F520A3E0A3F5F0100F
:10263000AF088583198582188008858319858218DB
:10264000D2AFD082D083D0E0F8D0E03275F0108ED7
:10265000218F22858226858325851882851983E02E
:10266000CEA3E0CF852682852583EBC9EAC8EDCBD2
:10267000ECCAC3E833C8E933C9EA33CAEB33CBC386
:10268000EA9EF524EB9FF523B35004AB23AA24EC78
:1026900033CCED33CDD5F0DAAE21AF2222D083D0CA
:1026A00082ECC0E0EDC0E0E493A3FCE493A3FDED75
:1026B0004C600D1227F8EC24FFFCED34FFFD80EF99
:1026C000E493A3FCE493A3FDED4C600D1228CBEC46
:1026D00024FFFCED34FFFD80EFD0E0FDD0E0FCE412
:1026E00093A3C0E0E493C0E022851983851882E0BB
:1026F000A3FEE0A3F5207808E0A3F608DFFAE0A344
:10270000FFE0A3C0E0E0A3C0E0E0A3C0E0E0A3C01E
:10271000E0E0A3C0E010AF08858218858319800827
:10272000858218858319D2AFD083D0820229EED05A
:1027300083D082E9C0E0E493A3C386F0C5F095F0AE
:10274000F908E493A386F0C5F095F0700BE493A329
:10275000C3994005E9048002A3E475F002A4258230
:10276000F582E5F03583F583D0E0F9E493A3C0E08A
:10277000E493C0E022C0E074F2122595A2AFE433E6
:10278000FED2AFC2C0901A12E0700BE5D1A2E450A5
:102790001D122E4D8018E5D1A2E3500675D1F71217
:1027A0002E1DE5D1A2E4500675D1EF122E23EEA224
:1027B000E092AF7F010225F4851983851882E0A39A
:1027C000FEE0A3F5207808E0A3F608DFFAE0A3FF17
:1027D000E0A3C0E0E0A3C0E0E0A3C0E0E0A3C0E06D
:1027E00010AF088582188583198008858218858333
:1027F00019D2AFD083D08222C0E0C3E4939608748C
:1028000001939618400FE49366700808740193666C
:102810001870007019A3A3C3E493960874019396EB
:1028200018A3A3400DD0E0D0E0D0E00226D9A3A3A6
:10283000A3A3A3A3D0E022D083D082C5F0E493A3C6
:10284000C5F0C395F0F5F0E493A3C395F04005E51A
:10285000F0048001E475F002A42582F582E5F035EC
:1028600083F583E493A3C0E0E493C0E02274048082
:102870000474028000CCC0E0EDC0E0E518C39CCC3D
:10288000AD1950011D10AF068C188D1980068C18DB
:102890008D19D2AF12296AD0E0FDD0E0FC2274027B
:1028A0008000CCC0E0EDC0E0E518C39CCCAD195071
:1028B000011D10AF068C188D1980068C188D19D249
:1028C000AF122948D0E0FDD0E0FC22C0E0C0F08883
:1028D000F0E4936670080874019366187000A8F01D
:1028E000A3A3700BD0F0D0E0D0E0D0E00226D9A3B3
:1028F000A3D0F0D0E022D083D082CCC0E0E493A378
:1029000060061229AA1470FAE493A36006122AD76B
:102910001470FAD0E0FCE493A3C0E0E493C0E0229A
:10292000C0E074F2122595758900C2C5901A12E0B4
:10293000700E7A007B10900703E0F91233CF80030A
:10294000123C6F7F010225F4CAC0E0E493A3C58264
:10295000CCC582C583CDC583F0A3C582CCC582C555
:1029600083CDC583DAE5D0E0CA22CAC0E0E0A3C5C2
:1029700082CCC582C583CDC583F0A3C582CCC58278
:10298000C583CDC583DAE6D0E0CA22C008C3E0968D
:10299000F50808A3E096420808A3E096420808A3B9
:1029A000E09645087001D3D00822C0E0E493A3D399
:1029B0009C5010E493A3C39C400AD0E0D0E0D0E048
:1029C000022913A3A3A3D0E02270090808082260FB
:1029D00016181818C6C333C608C633C608C633C689
:1029E00008C633C6D5E0EA22C09FF59FE473D09FA6
:1029F00022D083D082C09FE493C0E0740193C0E0F2
:102A0000740293F59F22C0E0C0D0E8C0E0A8A8D22D
:102A1000AFC2C7751A00E8A2E792AFD0E0F8D0D0F5
:102A2000D0E0322518F58210AF08F518400C1519C2
:102A30008008F51840021519D2AF85198322740455
:102A4000800A74038006740280027401C0E0F404FA
:102A5000122A23D0E0122CB72200C0D0251810AFC4
:102A600008F518500C05198008F51850020519D200
:102A7000AFD0D022BB0102E722C082C08389828A04
:102A800083BB0003E08002E493D083D082226016EF
:102A9000080808C6C313C618C613C618C613C61836
:102AA000C613C6D5E0EA222518F8E43519F922251F
:102AB00018FAE43519FB222518FCE43519FD22C368
:102AC000E0C696F608A3E0C696F608A3E0C696F61A
:102AD00008A3E0C696F622C0E0E493A36C7009D088
:102AE000E0D0E0D0E0022913A3A3D0E02225181003
:102AF000AF08F518400C15198008F5184002151993
:102B0000D2AF22E76670100809E766700A0809E785
:102B10006670040809E76622E066701008A3E066A4
:102B2000700A08A3E066700408A3E06622C3E0967A
:102B300008A3E09608A3E09608A3E096A2D265D089
:102B40003322C3E096F008A3E096F008A3E096F0E5
:102B500008A3E096F022C3E697F60809E697F60880
:102B600009E697F60809E697F622C3E493960874F7
:102B70000193960874029396087403939622E627AD
:102B8000F60809E637F60809E637F60809E637F6E3
:102B900022E026F608A3E036F608A3E036F608A3FE
:102BA000E036F622E493F608740193F60874029373
:102BB000F608740393F622E647F60809E647F60896
:102BC00009E647F60809E647F622E657F60809E659
:102BD00057F60809E657F60809E657F622E056F6D2
:102BE00008A3E056F608A3E056F608A3E056F6223E
:102BF000E056F008A3E056F008A3E056F008A3E082
:102C000056F022E026F008A3E036F008A3E036F004
:102C100008A3E036F022700422600D18C6C333C644
:102C200008C633C6D5E0F41822E4C396F608E49645
:102C3000F608E496F608E496F622C6F4C608C6F44A
:102C4000C608C6F4C608C6F4C622600D08C6A2E7C8
:102C500013C618C613C6D5E0F322C3E7960809E7E2
:102C6000960809E7960809E79622C3E09608A3E0CC
:102C70009608A3E09608A3E0962275D00075813FE0
:102C8000751801751904000224C7600C08C6C31327
:102C9000C618C613C6D5E0F422E6F008A3E6F0088D
:102CA000A3E6F008A3E6F022E0F608A3E0F608A306
:102CB000E0F608A3E0F622CAC0E0E6F0A308DAFADC
:102CC000D0E0FA22EAF0A3EBF0A3ECF0A3EDF022BF
:102CD000E0FAA3E0FBA3E0FCA3E0FD22E0F8A3E020
:102CE000F9A3E0FAA3E0FB22E8F0A3E9F0A3EAF0FD
:102CF000A3EBF022E5C754F84401F5C7790122257A
:102D000018F582E43519F583221229F1C9DF05127D
:102D100029F1E5DF051229F12AE0051229F1BAE0CF
:102D2000051229F112E1051229F1F4E1051229F148
:102D3000D9E2051229F11EE3051229F17FE30512FC
:102D400029F10BE4051229F137E4051229F182E497
:102D5000051229F1A8E4051229F140E5051229F12F
:102D6000E9E5051229F13CE6051229F16DE60512A7
:102D700029F1A4E6051229F148E8051229F114E920
:102D8000051229F1C7E9051229F1B89A071229F1AC
:102D9000C99A071229F1679B071229F17F9B071235
:102DA00029F1F47F001229F1C2FF041229F18D9B51
:102DB000071229F19D9B071229F1B29B071229F1F5
:102DC000439C071229F10E97071229F191970712D8
:102DD00029F1F797071229F1F1FF021229F1A9FF52
:102DE000041229F1B9FF041229F1BCFF041229F1E0
:102DF000BFFF041229F1F87F001229F1AE8D0712EE
:102E000029F1D08D071229F1388F071229F1BC8FD3
:102E1000071229F1B3FF031229F1BCFF031229F1B4
:102E2000C5FF031229F1D3FF031229F17CC3061257
:102E300029F1E9C3061229F1B1C4061229F126C508
:102E4000061229F129C6061229F156C8061229F1DF
:102E5000BBC8061229F106C9061229F117C90612C4
:102E600029F126C9061229F13CC9061229F14FC9D8
:102E7000061229F15AC9061229F168C9061229F168
:102E800079C9061229F14BFA031229F177FA0312D4
:102E900029F1F9FC031229F150FD031229F190FDEB
:102EA000031229F1A4FD031229F1BDFD031229F13A
:102EB000AEFE031229F15FFF031229F173FF031223
:102EC00029F1BF8F071229F1E38F071229F1FC8F37
:102ED000071229F12E90071229F15E90071229F1AD
:102EE0008B90071229F19590071229F1F79007129C
:102EF00029F10691071229F11091071229F11D916C
:102F0000071229F13186071229F15186071229F19A
:102F10009086071229F1AB86071229F1CA8607129B
:102F200029F13087071229F13987071229F196878D
:102F3000071229F1A587071229F1C987071229F17C
:102F40008A88071229F19788071229F1A8880712A1
:102F500029F1079D071229F11F9D071229F14B9DA9
:102F6000071229F1E3CE061229F137D0061229F112
:102F700044D0061229F157D0061229F16CD006125E
:102F800029F181D0061229F194D0061229F108D135
:102F9000061229F16DD1061229F1F5D1061229F197
:102FA00071D2061229F135D3061229F145D3061242
:102FB00029F154D3061229F165FF011229F189FF85
:102FC000011229F1B1FF011229F1D9FF011229F1F2
:102FD000D688071229F1FD88071229F11C890712EA
:102FE00029F18489071229F11F83071229F13883F7
:102FF000071229F14483071229F15883071229F196
:103000007683071229F18083071229F18A83071238
:1030100029F19D83071229F12E84071229F19D843D
:10302000071229F1D184071229F11F85071229F10E
:103030006C85071229F18785071229F191850712FE
:1030400029F1B785071229F11C86071229F1DE99AB
:10305000071229F1009A071229F18E9A071229F115
:10306000DCFF031229F17EA4061229F1A8A406129E
:1030700029F1C5A4061229F1D8A4061229F1EEA45B
:10308000061229F14CA5061229F17FA5061229F195
:1030900074A9061229F1D4AA061229F107AB061267
:1030A00029F151AB061229F1C7AC061229F1EFAC98
:1030B000061229F104AD061229F114AD061229F108
:1030C00058AD061229F1B3AD061229F1C3AD0612AF
:1030D00029F18292071229F19C92071229F1C492D8
:1030E000071229F1DD92071229F10193071229F144
:1030F0001F93071229F13693071229F164930712DF
:1031000029F17F93071229F1539C071229F1999C09
:10311000071229F1FBF9061229F10BFA061229F11F
:1031200012FB061229F146FB061229F172FB061268
:1031300029F195FB061229F1B3FB061229F1EDFBEB
:10314000061229F156FC061229F198FC061229F103
:10315000D7FC061229F108FD061229F133FD0612EB
:1031600029F19AEE061229F1FFEE061229F1A5EFD8
:10317000061229F1DCEF061229F1A8EA051229F15D
:103180003FEB051229F16DED051229F158F00512FA
:1031900029F1E6F1051229F152F2051229F1A1F502
:1031A000051229F1ECF6051229F1D994071229F13B
:1031B0002495071229F18AFD021229F19AFF0212C1
:1031C00029F11AF8051229F147F8051229F186F9B3
:1031D000051229F11FFB051229F1A3FD051229F1A2
:1031E000DAFD051229F128FF051229F18CC9061212
:1031F00029F132CC061229F1D7CC061229F103CDE0
:10320000061229F131CD061229F166CD061229F1F7
:103210008ECD061229F1EECD061229F1F08C0612A0
:1032200029F1D790061229F1C692061229F1EF93DF
:10323000061229F1CF94061229F17D96061229F182
:103240002798061229F1F798061229F14B990612D0
:1032500029F17E8B071229F1888B071229F1A98B9E
:10326000071229F1E8CE051229F15ED4051229F1E1
:10327000CCD5051229F188D7051229F181D805127C
:1032800029F1B3D9051229F1C5DA051229F1A5DB17
:10329000051229F17CDC051229F16C9C051229F13B
:1032A000A49C051229F1CAA6051229F1ABA70512A3
:1032B00029F1F7A8051229F140AA051229F1F6AA69
:1032C000051229F1CAAB051229F1B1AC051229F199
:1032D00099AD051229F13BAE051229F165AE051233
:1032E00029F115B0051229F185B0051229F19EB01A
:1032F000051229F1F5B1051229F1A6B2051229F13D
:1033000028B3051229F1D4B3051229F144B40512EA
:1033100029F1E0B4051229F157B5051229F18FB54D
:10332000051229F191B6051229F150B7051229F1BC
:10333000F6B7051229F13AFE041229F164FE0412CF
:1033400029F179FF041229F17CFF041229F1FD987B
:10335000071229F13E99071229F18099071229F1E4
:103360009099071229F1D499071229F1FDBC061290
:1033700029F13BBD061229F1A4BD061229F1C1BDF8
:10338000061229F1DABD061229F18CBE061229F1C6
:1033900095BE061229F1DABE061229F110BF0612F7
:1033A00029F127BF061229F199BF061229F126C07B
:1033B000061229F15CC0061229F1B3C0061229F1E8
:1033C00017C1061229F13AC1061229F19EC106124F
:1033D00029F1FAC1061229F135C2061229F16AC291
:1033E000061229F17CC2061229F18EC2061229F1B9
:1033F000C6C2061229F112C3061229F150C30612E1
:1034000029F176D8061229F1B6D9061229F1D9D9AF
:10341000061229F1EAD9061229F1DFDB061229F199
:10342000FFDB061229F18BFD061229F1C1FD061200
:1034300029F109FE061229F165FF061229F1E1E9D9
:10344000021229F112EB021229F14CEB021229F1BE
:103450000BED021229F135ED021229F1C2EF021231
:1034600029F102F0021229F199F1021229F12CF24C
:10347000021229F184F2021229F127F3021229F132
:103480005FF3021229F1A1F3021229F110F50212E1
:1034900029F162F6021229F185F8021229F1B3F836
:1034A000021229F1DAF8021229F1E3F8021229F1E5
:1034B0003AF9021229F1CCF9021229F1BAFC0212EE
:1034C00029F13DFD021229F156FF051229F16CFF89
:1034D000051229F176FF051229F1D0FF051229F115
:1034E000F4E1061229F10AE2061229F1AFE206120E
:1034F00029F1EEE2061229F10BE3061229F13CE371
:10350000061229F189E3061229F1BCE3061229F11A
:10351000F7E3061229F1E3E5061229F144E6061263
:1035200029F1B293071229F11194071229F16B9432
:10353000071229F1FB95071229F16D96071229F15F
:10354000AB96071229F1EC96071229F1F3AD06129A
:1035500029F1F9AD061229F13AAE061229F12CB083
:10356000061229F15CB0061229F1CBB0061229F13E
:1035700099B1061229F1DAB1061229F108B2061240
:1035800029F192B2061229F1A9B2061229F1B6B2B6
:10359000061229F1C0B2061229F15CB4061229F113
:1035A0006CB5061229F1B5B5061229F1EEF6011235
:1035B00029F104F7011229F197F7011229F1C3F853
:1035C000011229F1B8F9011229F155FA011229F174
:1035D00095FA011229F113FB011229F170FB011276
:1035E00029F180FB011229F1A7FB011229F1FAFB55
:1035F000011229F16BFD011229F170FD011229F16F
:1036000090FD011229F199DB031229F1CBDB0312A2
:1036100029F164DC031229F1BDDD031229F1A4DED6
:10362000031229F16FE0031229F18BE0031229F153
:10363000DAE0031229F15CE1031229F1B7E1031288
:1036400029F1CAE1031229F12EE2031229F189E2DC
:10365000031229F139E3031229F12AE4031229F1B3
:1036600065E4031229F1EBE4031229F1E5E6031204
:1036700029F1A6E7031229F1CDE8031229F14AE95D
:10368000031229F109EA031229F18EEA031229F142
:10369000DAEA031229F1F4EA031229F13DEB0312ED
:1036A00029F153EB031229F109EC031229F12FED53
:1036B000031229F13AED031229F1A1ED031229F1C8
:1036C000F4ED031229F152EE031229F14EEF031229
:1036D00029F1F1F1031229F110F2031229F121F37A
:1036E000031229F145F3031229F1BBF3031229F167
:1036F0007BF4031229F1B2F4031229F124F5031229
:1037000029F144F6031229F174F6031229F187F620
:10371000031229F18AF6031229F193F6031229F113
:10372000A5F6031229F11FF7031229F155F7031229
:1037300029F168F7031229F194F7031229F1BBF775
:10374000031229F1DFF7031229F18DF8031229F191
:10375000FFF8031229F136F9031229F140F9031297
:1037600029F177F9031229F18DF9031229F1AAF948
:10377000031229F1D8F9031229F1EEF9031229F104
:1037800006FA031229F118FA031229F11098071208
:1037900029F12198071229F1AC98071229F145DD8A
:1037A000061229F183DD061229F10FDE061229F136
:1037B0001ADF061229F136E1061229F16BE1061231
:1037C00029F1F2B5061229F141B6061229F1E1B745
:1037D000061229F1B5B9061229F1F7B9061229F135
:1037E000C2BA061229F1CABB061229F1ECBB0612B5
:1037F00029F148BC061229F1C9BC061229F1C751AA
:10380000001229F1E951001229F17C53001229F12B
:10381000C553001229F13954001229F1B65400128F
:1038200029F11B55001229F11E55001229F160558E
:10383000001229F1CF55001229F17E56001229F10C
:103840008156001229F1F656001229F1395700125B
:1038500029F12F5B001229F19A5C001229F1D85C42
:10386000001229F12E5D001229F17460001229F175
:10387000F160001229F19F62001229F1CF6300125A
:1038800029F10565001229F17F65001229F1A26670
:10389000001229F14767001229F15B67001229F134
:1038A0002968001229F15269001229F16B6B00128C
:1038B00029F1456D001229F1D66D001229F1E4704D
:1038C000001229F18571001229F17472001229F198
:1038D000C375001229F1D375001229F15177001236
:1038E00029F1E277001229F1DF78001229F1767AC6
:1038F000001229F1107B001229F1357C001229F108
:103900007F7C001229F13F7D001229F10080051211
:1039100029F1A080051229F10A81051229F12381DC
:10392000051229F1BA81051229F1FE81051229F14A
:103930002083051229F15C83051229F1D883051231
:1039400029F12384051229F18284051229F1928537
:10395000051229F1B288051229F1D389051229F13E
:103960004E8A051229F1358C051229F1D58C0512E4
:1039700029F17C8D051229F1DF8D051229F1548E74
:10398000051229F1638F051229F13790051229F1EB
:103990006D90051229F19C90051229F150910512A4
:1039A00029F17C91051229F1FC91051229F17C93F2
:1039B000051229F10895051229F15096051229F1F1
:1039C000BB97051229F1C798051229F16A990512CA
:1039D00029F1E399051229F1119B051229F177BB11
:1039E000041229F1DABB041229F122BC041229F1D4
:1039F00066BC041229F1D0BC041229F119BD0412CD
:103A000029F151BD041229F1EBBD041229F145BE83
:103A1000041229F192BF041229F11BC0041229F1EA
:103A200042C0041229F14CC1041229F137C2041218
:103A300029F184C2041229F183C3041229F1ABC312
:103A4000041229F1F4C4041229F105C5041229F164
:103A50001DC5041229F106C6041229F1ECC6041290
:103A600029F1F5C7041229F11FC8041229F137C83A
:103A7000041229F151C8041229F188C8041229F14D
:103A8000A8C8041229F1CFC8041229F1E6C804120B
:103A900029F1C2C9041229F11ACA041229F1C3CCAE
:103AA000041229F1F2CD041229F128CE041229F1D1
:103AB00032CE041229F149CE041229F1B6CE0412F5
:103AC00029F19FCF041229F1D5CF041229F1A6D0F4
:103AD000041229F147D1041229F175D1041229F1F8
:103AE00082D2041229F1A1D2041229F124D30412A2
:103AF00029F195D3041229F1D9D3041229F15DD407
:103B0000041229F1BAD4041229F167D5041229F15B
:103B10004DD7041229F12DD8041229F183D80412AB
:103B200029F1E1D9041229F106DC041229F1B0DEF1
:103B3000041229F15AE0041229F12AE1041229F1B0
:103B4000A2E1041229F1C4E1041229F1B3E2041242
:103B500029F1A3E3041229F10EE4041229F151E63C
:103B6000061229F165E8061229F12BE9061229F15E
:103B700080E9061229F1FDE9061229F191EA0612FF
:103B800029F1AFEA061229F1F3EA061229F119EB3D
:103B9000061229F13FEB061229F157EB061229F123
:103BA0003FFA041229F1DAEB061229F11CEC061295
:103BB00029F131EC061229F138ED061229F153ED05
:103BC000061229F15CED061229F165ED061229F1C4
:103BD0006EED061229F178ED061229F199ED061223
:103BE00029F116EE061229F18DD3061229F1EED72E
:103BF000061229F10AD8061229F10FD8061229F166
:103C00007A7E001229F1CFDD051229F15AF606124B
:103C100029F1F3F7061229F13CF8061229F1A8F868
:103C2000061229F19BF9061229F1CAF9061229F1A7
:103C3000DCF9061229F12791071229F100800712F9
:103C400029F15C80071229F19C80071229F19081EB
:103C5000071229F1B481071229F1C981071229F14C
:103C6000E981071229F12082071229F13182071216
:103C700029F14882071229F16D82071229F1FC828D
:103C8000071229F187FF031229F10080031229F19D
:103C90003280031229F19E80031229F13981031227
:103CA00029F1D881031229F11D82031229F13F82E3
:103CB000031229F15882031229F17E82031229F19D
:103CC000A082031229F1DE82031229F1228303125A
:103CD00029F14483031229F1A683031229F16D848B
:103CE000031229F12485031229F19685031229F183
:103CF0006886031229F1B286031229F1058703129F
:103D000029F16B87031229F1A587031229F1F7879F
:103D1000031229F11388031229F13E88031229F1B5
:103D2000458A031229F1998B031229F1BB8B0312E7
:103D300029F1EF8B031229F1108C031229F11F8C4A
:103D4000031229F12A8C031229F1DA8C031229F1CA
:103D5000438D031229F1F08D031229F1288E0312ED
:103D600029F1EE8E031229F1FB8F031229F1459000
:103D7000031229F1D490031229F13891031229F189
:103D80007391031229F1DF93031229F13395031282
:103D900029F16C98031229F13999031229F1C79975
:103DA000031229F1DB99031229F1049A031229F174
:103DB000769A031229F10A9B031229F17A9B0312C6
:103DC00029F1629C031229F1849C031229F1EA9DD6
:103DD000031229F1039E031229F1169E031229F101
:103DE000739E031229F1829E031229F10B9F031285
:103DF00029F1219F031229F12DA0031229F13AA0E4
:103E0000031229F143A0031229F11BA2031229F185
:103E10004BA3031229F15BA3031229F16AA4031235
:103E200029F1E1A4031229F11AA5031229F14AA6E6
:103E3000031229F190A6031229F15CA8031229F1BB
:103E400034AC031229F148AC031229F152AC03122D
:103E500029F15CAC031229F166AC031229F170ACB4
:103E6000031229F189AC031229F193AC031229F151
:103E700011AD031229F11CAD031229F149AD031252
:103E800029F16EAD031229F179AD031229F1C7AD05
:103E9000031229F1D1AD031229F1DCAD031229F18E
:103EA00000AE031229F124AE031229F180AE0312F1
:103EB00029F1C6AE031229F1E3AE031229F160AF76
:103EC000031229F197AF031229F1D6AF031229F19A
:103ED00023B0031229F1A5B0031229F13EB1031258
:103EE00029F10EB3031229F16CB3031229F188B43E
:103EF000031229F1AEB4031229F1EDB5031229F131
:103F000013B9031229F154BB031229F130BD031276
:103F100029F1C6BD031229F1EDBF031229F199C0A1
:103F2000031229F1CEC0031229F133C1031229F182
:103F30003DC1031229F167C3031229F155C40312CD
:103F400029F19EC5031229F1DEC5031229F184C6A9
:103F5000031229F115C8031229F19EC9031229F190
:103F6000BEC9031229F117CA031229F119CB031292
:103F700029F163CB031229F1B3CB031229F19DCCB4
:103F8000031229F112CD031229F12CCE031229F1CB
:103F9000A7CE031229F1ACCF031229F157D2031295
:103FA00029F176D2031229F1D7D3031229F199D539
:103FB000031229F1EDD5031229F1A5D6031229F137
:103FC00054D7031229F1B4D7031229F16AD8031286
:103FD00029F1FFD8031229F16BD9031229F1A5D9D0
:103FE000031229F1D6D9031229F132DB031229F188
:103FF0000080021229F13280021229F16980021236
:1040000029F15082021229F19082021229F1738360
:10401000021229F1CB83021229F10685021229F13D
:104020005285021229F17A88021229F1E68B0212D6
:1040300029F1338D021229F1C98D021229F1D58D92
:10404000021229F1078E021229F1898F021229F139
:104050009790021229F1C190021229F118910212CF
:1040600029F17191021229F1DD91021229F1F493E3
:10407000021229F18395021229F14D96021229F1BB
:104080008B97021229F1BB99021229F18B9C021223
:1040900029F1989C021229F11F9D021229F1C79D56
:1040A000021229F10A9E021229F1539E021229F1ED
:1040B000A79E021229F10C9F021229F1749F02128D
:1040C00029F1919F021229F1C19F021229F1F69F55
:1040D000021229F1C6A0021229F16FA1021229F1E0
:1040E000F3A3021229F113A5021229F1FCA5021271
:1040F00029F17EA6021229F1A0AA021229F1DDAA55
:10410000021229F135AB021229F168AB021229F132
:10411000E9AB021229F136AC021229F1C1AC02124C
:1041200029F113AD021229F1EAAD021229F1A3AE71
:10413000021229F13EAF021229F157B2021229F1FF
:1041400077B3021229F128B7021229F146B80212F8
:1041500029F149B8021229F178B8021229F17EBA80
:10416000021229F157BB021229F18CBB021229F16C
:1041700094BC021229F14ABD021229F1F0BE0212CA
:1041800029F154BF021229F179BF021229F1B8BFF7
:10419000021229F1F9BF021229F1D1C0021229F14C
:1041A000AFC1021229F1DCC1021229F1A9C2021227
:1041B00029F1DFC4021229F150C5021229F190C57C
:1041C000021229F1C9C5021229F15DC6021229F1B4
:1041D000A6C7021229F169CB021229F158CC0212AA
:1041E00029F13FCD021229F1B7CD021229F179CE82
:1041F000021229F12FD0021229F1B7D0021229F1AF
:10420000CCD1021229F1DDD1021229F1F5D102122D
:1042100029F106D2021229F11AD2021229F152D240
:10422000021229F180D2021229F107D4021229F1D7
:10423000D9D4021229F160D5021229F19BD50212BC
:1042400029F1F9D5021229F140D6021229F105D837
:10425000021229F1B7D8021229F1E7D8021229F186
:10426000CBD9021229F17CDA021229F137DC0212D1
:1042700029F1EEDC021229F123DD021229F18BDD96
:10428000021229F1BADE021229F16CDF021229F1C1
:104290009DDF021229F1B5DF021229F144E002127A
:1042A00029F1F8E2021229F1D0E4021229F1ECE43A
:1042B000021229F108E5021229F1D6E5021229F1CC
:1042C000BFE9021229F18BF2061229F1CBF2061294
:1042D00029F17EF4061229F18DF4061229F19DB818
:1042E000051229F1B4BD051229F1FFBD051229F10E
:1042F0004FC0051229F1E3C1051229F171C205125F
:1043000029F1D2C4051229F1D7C6051229F12BC70C
:10431000051229F13AC9051229F18DC9051229F1B1
:10432000E8C9051229F10ACA051229F111CA0512B4
:1043300029F129CA051229F109CB051229F1E8CB87
:10434000051229F1C581011229F10782011229F113
:104350003D87011229F18987011229F1CF870112C6
:1043600029F11E89011229F17A89011229F1BF89E7
:10437000011229F1528B011229F1A88E011229F1A3
:10438000CD8F011229F14F9B011229F1E29B0112FD
:1043900029F13F9F011229F17EA0011229F1D9A034
:1043A000011229F121A2011229F10DA3011229F113
:1043B000A4A5011229F113A7011229F19AA701124C
:1043C00029F19DA7011229F112A8011229F11CA8B7
:1043D000011229F129A8011229F154A8011229F189
:1043E00004A9011229F101AA011229F1ABAA0112B3
:1043F00029F138AB011229F156AB011229F16FAB4B
:10440000011229F198AB011229F1BAAB011229F17D
:1044100000AE011229F1E3AE011229F129AF011218
:1044200029F1A8AF011229F154B0011229F186B087
:10443000011229F1D8B0011229F114B1011229F1A8
:1044400053B1011229F1A3B1011229F1A8B101124E
:1044500029F1FCB1011229F128B2011229F104B3AA
:10446000011229F154B3011229F1C1B3011229F14A
:104470001BB4011229F1B2B4011229F1F7B70112EC
:1044800029F10FB9011229F1A8BA011229F1DBBDF6
:10449000011229F16DBE011229F164C1011229F145
:1044A00023C2011229F167C2011229F10CC40112C1
:1044B00029F120C4011229F12AC4011229F134C4BE
:1044C000011229F140C4011229F15CC4011229F141
:1044D000BCC6011229F1FBC6011229F105C7011260
:1044E00029F10FC7011229F195C7011229F1EDC772
:1044F000011229F10AC9011229F16EC9011229F12B
:104500007BCA011229F1BFCA011229F16BCB01123A
:1045100029F144CC011229F1FFCC011229F10CCE72
:10452000011229F146CF011229F143D0011229F1DC
:104530005BD0011229F1B2D0011229F1BCD00112D5
:1045400029F1C6D0011229F1D1D0011229F1EFD001
:10455000011229F137D1011229F199D1011229F162
:10456000C0D1011229F1D2D1011229F16DD201126B
:1045700029F1A2D2011229F1A1D3011229F1EFD31D
:10458000011229F1E9D4011229F11FD5011229F1F3
:10459000A2D5011229F113D6011229F1BFD70112B8
:1045A00029F1E9D8011229F1ACD9011229F17DDAFA
:1045B000011229F1E8DA011229F165DB011229F172
:1045C00092DC011229F126DD011229F176DD0112BA
:1045D00029F1E1DD011229F1A7DE011229F1F1DE55
:1045E000011229F149DF011229F121E0011229F11B
:1045F00044E0011229F107E1011229F129E1011238
:1046000029F192E1011229F1A8E3011229F198E4BC
:10461000011229F162E5011229F19AE7011229F14B
:10462000E4E7011229F134E8011229F1A1E80112AD
:1046300029F103E9011229F131E9011229F155E9C2
:10464000011229F18AE9011229F1BBE9011229F1CC
:10465000EEE9011229F148EA011229F19BEA01125F
:1046600029F1C7EB011229F174ED011229F1C2ED14
:10467000011229F1EBED011229F177EE011229F176
:10468000ECEE011229F1FAEE011229F11EEF0112EE
:1046900029F17BEF011229F19AEF011229F150F073
:1046A000011229F188F0011229F1CBF0011229F150
:1046B0002EF1011229F120F3011229F14AF301121E
:1046C00029F14EF4011229F160F5011229F110F6D9
:1046D000011229F16999061229F1A199061229F10D
:1046E000C299061229F1049A061229F1669A061255
:1046F00029F1709A061229F1809A061229F1BB9AC3
:10470000061229F19B9E061229F188A0061229F1B2
:104710006EA2061229F105A3061229F1A7A306121B
:1047200029F19680041229F14181041229F1EF81C7
:10473000041229F1F582041229F11583041229F1DA
:104740003E84041229F1F985041229F16C860412C1
:1047500029F11087041229F11C88041229F1878895
:10476000041229F1C388041229F10689041229F1DF
:104770004189041229F18389041229F1188A04124B
:1047800029F1948A041229F15E8B041229F13B8CE1
:10479000041229F1D38C041229F1ED8C041229F1B1
:1047A0001D8D041229F14E8D041229F1148E04126C
:1047B00029F1248E041229F1738E041229F1808EBE
:1047C000041229F1898E041229F1078F041229F1AC
:1047D000638F041229F1AE8F041229F1C98F0412DC
:1047E00029F1F48F041229F11190041229F11D907E
:1047F000041229F1B491041229F1CD91041229F186
:104800005292041229F16592041229F18492041241
:1048100029F12893041229F1A994041229F15C9634
:10482000041229F1F296041229F1F596041229F1E5
:104830006597041229F18397041229F11A9804123A
:1048400029F16298041229F16598041229F12B9933
:10485000041229F19899041229F1BE99041229F140
:10486000499A041229F1679A041229F1AD9A0412A7
:1048700029F1619B041229F1AB9B041229F1DA9B07
:10488000041229F1379C041229F16C9C041229F1BD
:10489000989C041229F1A69C041229F1F39C04129D
:1048A00029F1639D041229F1AC9D041229F1F89DB0
:1048B000041229F1249E041229F12F9E041229F1D9
:1048C0004D9E041229F1389F041229F1429F0412CF
:1048D00029F17D9F041229F18D9F041229F1969FE1
:1048E000041229F1EA9F041229F1FE9F041229F112
:1048F0002DA1041229F140A1041229F157A104129B
:1049000029F16CA1041229F1FAA1041229F13FA2A4
:10491000041229F1CBA2041229F1D6A2041229F122
:1049200018A4041229F133A4041229F17FA404125B
:1049300029F1EEA4041229F127A5041229F141A5B9
:10494000041229F1A1A5041229F140A6041229F1AB
:104950008BA6041229F15BA9041229F10DAA0412F5
:1049600029F17AAA041229F1BAAC041229F1D2ACC5
:10497000041229F1D5AC041229F1E1AC041229F199
:10498000F5AC041229F1FDAC041229F130AD04128A
:1049900029F133AE041229F1C0AE041229F130AF6F
:1049A000041229F1B2AF041229F173B0041229F1F3
:1049B00092B0041229F133B1041229F190B104121A
:1049C00029F193B1041229F1C0B1041229F1D5B132
:1049D000041229F149B2041229F198B3041229F101
:1049E0009EB4041229F129B5041229F144B6041227
:1049F00029F10CB7041229F13DB7041229F160B76F
:104A0000041229F169B7041229F198B7041229F1A7
:104A100028B8041229F1DEB8041229F153B904129E
:104A200029F1FAB9041229F16FBA041229F1A6BAD0
:104A3000041229F1E4BA041229F11ABB041229F173
:104A4000E8F9041229F13CF9041229F174F704126F
:104A500029F1BDF6041229F18AF6041229F13FF674
:104A6000041229F1DAF5041229F199F5041229F159
:104A700079F5041229F1ABF4041229F138F4041287
:104A800029F1D6F3041229F179F3041229F1ECF19A
:104A9000041229F189F1041229F1DDF0041229F13F
:104AA000D4F0041229F1C8F0041229F195F004128F
:104AB00029F146ED041229F118ED041229F1B3ECA5
:104AC000041229F1A0EC041229F195EC041229F149
:104AD00091DD051229F159EC041229F16BDD051263
:104AE00029F1EFDC051229F1ABFD041229F160FD7B
:104AF000041229F1F4FC041229F191FC041229F1A9
:104B000087EA041229F170EA041229F1A6E90412D5
:104B100029F103E9041229F167FC041229F127E7BE
:104B2000041229F1C9E5041229F1BEE5041229F1A4
:104B300036E5041229F144F6061229F1CDE40412F7
:104B400029F1EBFB041229F1A9E4041229F1B98C33
:104B5000061229F1728C061229F1118C061229F124
:104B6000DC8B061229F1B18B061229F17D8B06121E
:104B700029F1558B061229F1D88A061229F1C28A29
:104B8000061229F1928A061229F1088A061229F1E1
:104B90004D86061229F10584061229F1DD810612DF
:104BA00029F15F81061229F11081061229F1008096
:104BB000061229F19D80061229F15E80061229F164
:104BC0006FEB0600000080FBE4738F000100111EF4
:104BD00087000100061A35000400D51D25000200DB
:104BE000D91D26000200DB1D27000200DD1D280064
:104BF0000100E71D29000100E81D84000400DE1902
:104C0000860001007F1D2A000100E91D2B00010024
:104C1000EA1D2C000100F01D2D000800EC192E00EB
:104C20000100F11D2F000100F21D30000100F31DF5
:104C300031000100F41D32000100F41933000100BD
:104C4000F51934000100F51D36000100F619380091
:104C50000100F61D39000100EF1D830002000E1E49
:104C600063000100011A64000100EB1D65000100F2
:104C7000EC1D6D000100021A71000800E4196600C5
:104C800001000D1E43000100FE1D44000200FF1D37
:104C900045000100011E46000200021E47000800F8
:104CA000F91948000100041E4B000100051E040014
:104CB0000100101EA1000100141E37000100131E88
:104CC00088000100121E3C000100F7193D000100A0
:104CD000F71D49000200061E67000100031A4D007F
:104CE0000200081E4E0001000A1E4F0002000B1EAB
:104CF0003E000100FD1D51000100F91D52000100A0
:104D0000FA1D53000100FC1D54000100F8190000B9
:104D1000000000000001363601010001020100011F
:104D2000030100010401060605020000070100342A
:104D30000801000F090401010D0100FF0E08000029
:104D400017020000190100FF1A0100011B0100FEFB
:104D50001C0100081D0200001F01000120010001CC
:104D6000210200002301000F24020000260100019F
:104D700027010008280200FF2A0100072B0102403A
:104D80002C0100002D0100012E0100012F0100FF68
:104D900030010B1D310800003A0100083B01000FF3
:104DA0003C0100013D0100FF3E0400004204000000
:104DB000460400004A0400004E04000052040000B3
:104DC000560400005A0400000103710301030103AB
:104DD0000103010301032203020301031003000383
:104DE0000003000300030003000300034203000369
:104DF0002403060300030003040312032503230313
:104E000025032303040304030003000300034403F6
:104E1000000300032303000365032100350381031E
:104E2000000305030003000300030003250323031D
:104E300003027102300160021102700201020202DB
:104E400002028002100261023A0041006302730212
:104E500072026202430200021302380000020002E2
:104E60000402120200020002000200020402040214
:104E7000370037003C024402000239000002000201
:104E800065020002350281020002050282028302ED
:104E90000002030071003001600011007000310257
:104EA0002003500480001000610000001400630023
:104EB000730072006200430000001300060000004F
:104EC00000000400120000000000000000000400C8
:104ED0000400370037003C024400000000000000DE
:104EE00000006500000035008100000005000000A2
:104EF00083000000010171010101010111010101A3
:104F00003101010101018001100161013B00140028
:104F10006301730172016201430100011301060183
:104F20003D013500040112010001000100010001F2
:104F300004010401330133013C0144013201360014
:104F4000000100016501000135008101000105013A
:104F5000820183010001030471040204600411044E
:104F60007004020402040104020410046104000439
:104F700014046304730472046204430400041304FD
:104F800006040004000404041204000400040004E5
:104F900000045104640000040004000444040004FC
:104FA0000004000400046504000435048104640066
:104FB000050400048304000436000100060000001C
:104FC0000F0000000000000000000000000003FFD0
:104FD000FF00000403FFFF0000FFFF0FF4010005C6
:104FE000C4040320000100000B00000000000000CA
:104FF0000003010F0000000000000000000000009E
:1050000000000000000000000000000000000000A0
:105010000000000000001300A3381F00A9381F8003
:10502000AF3800004B3901004B39020025380280AF
:105030001F3803002B38040031380480373805004E
:105040003D38060049383000673831006138320099
:1050500073383300793835007F38340085383600AE
:105060008B381100973814009D3815005B38FFFF0E
:1050700000000A0000000200000004000000080018
:105080000000100000002000000040000000800030
:105090000000000100000002000000040000000801
:1050A0000000001000000020000000400000018906
:1050B0004306B94308B3430BD743109F3F0AE94364
:1050C000028F4305A7430795430C71430D7D43644D
:1050D0006B3DFF000007ECFDFDFDECDCDCCCBCAC67
:1050E000AC9C9C8C7C7C6C6C5C5C5C4C4C3C3C2C30
:1050F0002C1C1C00160F00000B150B020002220FC7
:105100003300000E0F00000000000000000000004F
:1051100000000000005A6967426565416C6C696176
:105120006E63653039D0D1D2D3D4D5D6D7D8D9DAB9
:10513000DBDCDDDEDF140AE5D5C5B5A5A5958585E3
:10514000756500034D4C4651181A250502000119DA
:105150001618161618230300303016181920231AB3
:105160001C1E30003C40423A3F3F392F4730303020
:1051700017181921301B1D1F300C0E020B040B0ACF
:105180000708000F02040201010101090200BE0428
:105190000AE8030000FA06D5500C001E00000000CB
:1051A0000035510E00E8037F001E1E050CFF0404AD
:1051B000080028040002090809033C0C0305080B39
:1051C0000300FF0A0C1010C082C083901855E4F051
:1051D000A3F07C357D1B7A6F7B17123543123D9B04
:1051E000123FED123DA102675474F212245B74FE6B
:1051F000122AEDE9FF8A08EBFE8C09E9703374028C
:105200006A70167908123771E4F50AF50B780A12FC
:105210002A46780A122A4A805374016A60030253AC
:105220004E79081237717B00EEFAF9123E0D0253E7
:105230004974016F600874026F600302534EEA60A4
:105240000874036A60030252E912420FE960537462
:10525000036508604D1233878A0A8B0B780A122A7D
:1052600046750A01780A122A4A750A00780A122A33
:105270004AE509F50A780A122A4AEEF50A780A126E
:105280002A4A90178912286D901D7FE0F97CF97DDC
:1052900019901E0E12657B123DC5740A122A59021E
:1052A00053497902123771901D7FE0F990178912E6
:1052B0002CD0123DB3E9F8901799E0A2E34010E931
:1052C000700D901859E004F06404700312536A746E
:1052D000036508707690185AE0F9740129F0E9C363
:1052E0009405406712536A806274016A70607401A9
:1052F0006F790A702C1237717A007B04901C06E0DB
:10530000F9123501AA18AB19795012626F12628A2C
:10531000E812771C7900901BB912657B123E55800C
:1053200044123771901DE312286D7A007B2090178C
:105330008EE0F91234F57404122A59901D7FE0F9B9
:10534000901789122CD0123DEFE9F8E86017908190
:10535000B812286D7A017B0090178EE0F91234F5AF
:105360007404122A597402027BB0901789E4F0A3E6
:1053700074F8F0A374FFF0A37407F02274F61224FB
:105380005BE9FFEAFE7AD1F91233AB8A828B83E5BF
:10539000824583702A7A027B0012338DEA4B700EAD
:1053A0007A107B0090178EE0F91233CF80148A8236
:1053B0008B8374D1F0EFA3F0EEF91233998003EFF1
:1053C000A3F00255CA74F712245B890890040112F5
:1053D000669D901DCBE0F47003A3E0F4703090075D
:1053E00003E0901DCBF0A3E4F080238E828F831224
:1053F00064FE600F8E828F83A3A31264FBFAA90858
:105400001238078E828F8312627CE8FEE9FFEE4F2E
:1054100070D9901DCBE0F47003A3E0F4600A901DF6
:10542000CBE0FAA9081238071244AF901759125C62
:10543000D21244A97F010226E974F012245B890B81
:105440008C0C7509007508007410122CFF12627C18
:105450007412122CFF1256788047125502F50EA3D3
:10546000E0F50FAE08EE2EFEE433FFEA2EF582EBF8
:10547000126B49650E7004A3E0650F7019AE09EE5A
:105480002EFEE433FFEC2EF582ED3FF583E50EF0C2
:10549000A3E50FF00509050AE50AC3950C40BB0515
:1054A00008E508C3950B5005750A0080EBA9098033
:1054B000007F080226E974F412245B890B7D0074D6
:1054C0000C122CFF12627C80010DEDC3950B502E47
:1054D000750A008002050AE50AC39C50ECED25E040
:1054E000FEE433FFEA2EF582EB3F1276EA12550214
:1054F00065087004A3E0650970DB7901800279001A
:105500008014AE0AEE2EFEE433FFE82EF582E91297
:105510005C6F22122A597F040226E90229EE74F6F2
:1055200012245B1255B47003A3E06D7017750897D1
:105530007509177808122A46EEFA123951740212C8
:105540002A59801A7508027509807808122A468A35
:105550000889097808122A461255A2122A59806A27
:1055600074F612245B1255B47003A3E06D701775C6
:1055700008A47509177808122A46EEFA12395774EA
:1055800002122A59801A7508037509807808122AB0
:10559000468A0889097808122A461255A2122A5901
:1055A0008028EE240E125C6CFD7C801267FA1239A2
:1055B00075740422EAFEEBFF12680FFCE439FD90DB
:1055C0001759E06C227402122A597F020226E974EC
:1055D000F612245B74FE122AED8A088B0985188264
:1055E000851983E4F0A3F01260EB126943FBECFA37
:1055F00088828983A3A3E0F97F007E00600574FFA1
:105600006970047E828045901759E06A7003A3E0B8
:105610006B701AAA18AB19124B75E9FA85188285B6
:10562000198312674170027E83EAFF801F901A0679
:10563000E060046401700E123D23E960047E8980FD
:105640000B7E818007E0640270027E80125672EE4B
:10565000F9AA08AB0912395DEF6014851882851923
:1056600083126741600985188285198312717E0251
:1056700055C5851882851983E0FCA3E0FD22022927
:10568000EE74F212245BEAFEEBFF75080075090068
:1056900012680BF50AE439F50B1244AFEA650A709B
:1056A00003EB650B7012124B63E914F50879017A6C
:1056B000217B18124B5D8003750980126B43F50C3A
:1056C000780C122A4A750C21750D18780C122A468E
:1056D0007808122A4A780A122A46E509F508780855
:1056E000122A4A12656A126B46F97A057B801239D2
:1056F000637407027BB074F612245BE9FF7E0080BE
:10570000308A828B831276F2F8E4C8F9E50828E43F
:1057100039F509EE25E0F8E433F9EC28F582ED39A6
:10572000F583E508F0A3E509F0EA2402FA50010B3D
:105730000EEEC39F40CB0255CA74E812245B74FE80
:10574000122AED8A108B11750F0085188285198336
:10575000E4F0A3F0F516F5171263CA35111278C2FA
:10576000127D23FA8E828F83A3A3A3E0F9EAF508C2
:10577000E439F509AA0AAB0B12454BE96401702B19
:10578000127543122A4AE4F508F5097808122A46E8
:105790007808122A4A780A122A4675088078081270
:1057A0002A4A125B11122A59025AFAAA0AAB0B12A0
:1057B000454BE97041901759E0650A7004A3E06514
:1057C0000B6033901A06E064027028127543122AA7
:1057D0004AE4F508F5097808122A467808122A4A98
:1057E000780A122A467508807808122A4A125B1134
:1057F000122A59025AFA8E828F83A3A3A3A3E0F53B
:105800000BEE2405FE50010FE50B602A127C078584
:105810001882851983EAF0A3EB126B60E8496016E1
:10582000125672EEFAEFFBA90B1238438A0C8B0D5D
:10583000AE0CAF0D8003750B00127C1D601A127C3C
:10584000078A168B17EA4B600FAC16AD17EEFAEF0E
:10585000FBA90A1238438003750A009004018050A6
:105860008E828F83A3A3A3A3A3A3A3A3E4F0A3F097
:10587000EEFAEFFB851482851583A3A3E0F812648A
:10588000FBF9123399851282851383E0C0E0A80FDB
:10589000742128F582E43418F583D0E0F0050FA2D6
:1058A000005007AA12AB1312343585148285158374
:1058B000E0F514A3E0F515E51445157003025A78D8
:1058C0008514828515831264FE60DF851482851538
:1058D00083A3A3A3A3A3A3A3A3E0A2E050CC851416
:1058E00082851583A3A3A3A312674185148285151E
:1058F00083A3A3601E126500FA79018514828515C1
:1059000083A3A3A3A3125B04124BC88A128B13D2E6
:10591000008010125B04A3A3A3A3E0F512A3E0F59B
:1059200013C200E5124513700302589F8512828549
:105930001383A3E065087004A3E06509600F74FF9A
:105940006508700474FF6509600302589F85128220
:10595000851383A3A3A3A3A3A3A3122871851282F3
:10596000851383A3A3A3A3A3A3E0FC7402122CFFBB
:1059700012657BA90B1238197402122A59E9703882
:10598000851282851383A3A3A3A3A3A3A3A3A3A385
:10599000122871851282851383A3A3A3A3A3A3A3B3
:1059A000A3A3E0FCAA16AB17A90A123819740212B5
:1059B0002A59E9700302589FE50A250BC333240ACC
:1059C000FA7B0012338D8A0C8B0DAE0CAF0DEA4FB3
:1059D00070030258858A828B8374D2126D398A8251
:1059E0008B83A3A31270C3A3A3A3E50B127D34E59D
:1059F0000B6033EA240AFAE43FFB8E828F83125C49
:105A0000CD851882851983E0F50CA3E0F50D750EA0
:105A100000780C122A42AC0BEC2CFCE433FD127D16
:105A20001D122A59800D8A828B83A3A3A3A3A3E40A
:105A3000F0A3F0E50A7003025860A80BE828F8E428
:105A400033F9EE28F8EF39F9E8240AFAE439FB8E45
:105A5000828F83A3A3A3125CCD85160C85170D75C9
:105A60000E00780C122A42AC0AEC2CFCE433FD1236
:105A70007D1D122A59025870E50F602512754312D8
:105A80002A4A7508217509187808122A46E50FF583
:105A9000087808122A4A9017591228717508008050
:105AA0002DE510240BF582E43511F583E0702A1200
:105AB0007543122A4A7508217509187808122A4672
:105AC0007508007808122A4A901759122871780828
:105AD000122A4A125B11122A5985188285198312DB
:105AE0006741600985188285198312717EE5164524
:105AF000176007AA16AB171234357402122A597FA1
:105B0000100226E9125B0822E0F8A3E0F583888200
:105B100022E5102402FCE43511FDE5101264F53590
:105B200011F583E0F97A067B8012396374072274D9
:105B3000F412245B74F4122AED8A088B09ECFEED52
:105B4000FF740B122CFF7403F0122AAF12354312AC
:105B5000668F7403122AAF12353DE9600A125C6346
:105B60006010E06401600B851882851983748402DB
:105B70005C2A8E828F83A3A3A3A3A3A3A3A3E06025
:105B800013F46010125C637016EE2414126B4660FE
:105B900003F4700B8518828519837482025C2A12C3
:105BA00078B6E064217002A3E070558518828519EB
:105BB00083748C126299E0F50A780A122A4A125C00
:105BC000741240FB7401122A59E9705F85188285AE
:105BD0001983E4F012374D125C63704F7401122A7E
:105BE000B7EE240BFAE43FFB124119E9703D7D004A
:105BF0007C007900EE240BFAE43FFB12391B802B6A
:105C0000EE2414126B46F50A780A122A4A125C74C2
:105C10001241017401122A59E9851882851983708D
:105C200007E4F012374D80037488F01274C9F50A46
:105C3000780A122A4A7401122AA7880A890B780A5C
:105C4000122A46E508240CF582E4350912629144D3
:105C500080F50B780A122A46126671122A59740CC2
:105C6000025513EE2413125C6C640322F582E43FA8
:105C7000F583E022EE240BFCE43FFD8E828F83A3AC
:105C8000A3A3A3A3A3A3A3A31275008E828F83A3B0
:105C9000A3A3A3A3A3A3A3E0F922C082C08374F3A8
:105CA000122AED851882851983E4F004122CFF1264
:105CB0005CD27403122CFFAA82AB83123CABAA18ED
:105CC000AB19123CE7740D122A59026754A3A3A31F
:105CD000A3A3EAF0A3EBF02274F612245BEAFEEB36
:105CE000FFEA2413126B46F8A3E0125D1FF8901729
:105CF0009FE058F508A3E059F509E5084509601C3F
:105D00007808122A46901759122871126B43FD7CAD
:105D1000001267F612396F7404122A590255CA88A4
:105D200082F583125D2722E0FAA3E0F9EA2274EA01
:105D300012245B74DB122AED8A148B157512007520
:105D40001300750A001263CA3515F583126500F554
:105D50000EAC18AD197A007B00799C123E25901A82
:105D600006E06004640170147A047900123D11EABF
:105D7000F50A851882851983E02A800885188285AE
:105D800019837401F0E0F8E50EC3984003025F80C8
:105D9000E0C3950EF509C394044003750903E509B2
:105DA00075F01AA4FAABF012342F8A128B13EA4B57
:105DB0007003025F83750B00AE12AF13850E0802ED
:105DC0005E487C087D0079FFEE240AFAE43FFB126E
:105DD0003375850C82850D83A3A3A3A3E0702D8565
:105DE0000C82850D8312674170091276C7126027F5
:105DF000E48010126004F0901BCCE014C0E0125F4D
:105E0000EBD0E0F0125FEF1260368032901BCCE0F6
:105E100004C0E0125FEBD0E0126063C39403EE4075
:105E200003025EC91277C0740212606364017003DA
:105E3000025ED6EE24151260071260187401F0EEAF
:105E4000241AFE50010F050BE50BC3950940030210
:105E50005F35E508C3950A4003025EDFAA087B00B0
:105E6000123D538A0C8B0D0508901BB912604985B1
:105E70000C82850D83126010F0A3E912603B125F63
:105E8000EB74FF126068A3A3A3A3A3A3E0C0E01276
:105E90005FD9D0E0F07401122CFFE4F0850C82850C
:105EA0000D8312627C7402122CFFE812771C7401BD
:105EB000122AAF123CD5E964016003025DC274048A
:105EC000122CFF125FF5025DD2126005126063644E
:105ED000036003025E33EE24151276CA025E39E5D2
:105EE0000AC3950E40057508008051E50EC3950A5A
:105EF000F5088048EE24151276CA126036F0901B21
:105F0000CCE014C0E0125FEBD0E012603B741D12D5
:105F10002CFFE0C0E0125FD9D0E0F0125FE312671F
:105F20003F70051276C78003126004F0EE241AFE5B
:105F300050010F050BE50BC395095047740E122A4B
:105F4000B7AA087B007987123E2505087418122C21
:105F5000FF1260497410122CFF125FF5740E122CA0
:105F6000FF12601012771C901A06E0600464017042
:105F700083125FEF126018740312602774FF808A27
:105F8000750900750A00780A122A4A7812122A4600
:105F90007809122A4AE50EF5097809122A4A740589
:105FA000122CFFE0FD7C00E5141264EC3515FBE5D6
:105FB000141264F13515F583E0F91239AB7405124A
:105FC0002A59E51245136007AA12AB13123435742F
:105FD00025122A597F0E0226E9EE2419F582E43FA4
:105FE000F58322EE2412F582E43F2212602C221265
:105FF0007747740222AC82AD83EE240AFAE43FFBB9
:1060000012354322EE2414F582E43FF58374012215
:1060100012772912773DE82212601C22F0EE241636
:10602000F582E43FF58322F012602C22EE2418F56D
:1060300082E43FF5832212601CE422F0EE2417F57F
:1060400082E43FF5837402F0221277298E828F83D7
:10605000E8F0A3E9F07CCD7D1BEE1264EC3FFB126F
:10606000354322126068E022F0850C82850D83A3FF
:10607000A3A3A32274F612245B74F9122AED126012
:10608000E7127DE6851882851983122CE88E828FAF
:1060900083A3A3A3A3E0C0E07404122CFFD0E012FA
:1060A0007B5BF87405122CFF7401F07406122CFF50
:1060B0007401F0901763F090176C041277DCFAA368
:1060C000E0FB901764125CD2E890176DF0127B7EB3
:1060D000E0901762F0AA18AB19123DB9E9600312FB
:1060E0003DBF74070255C78A088B09127AF4350937
:1060F0002274F212245B74FF122AED7508007E00F0
:106100007F001243C58A0A8B0B1262638005050863
:10611000126279E84970F7901A06E060076401603E
:10612000030261D91262638003126279E849602D2B
:106130008882898312657B901BB9E06A7003A3E0B3
:106140006B600A12628012657BEA4B70DC88828980
:106150008312628AE0687003A3E069607C7A167B30
:1061600000127AD76073901BB912627C8A828B838B
:10617000E812771C901BAE126DD0F0124533E98EF9
:10618000828F83A3A3A3A3A3F0901DE9E08E828F47
:1061900083A3A3A3A3A3A3F07CCD7D1BEE240B12AA
:1061A0005FFCAA18AB19794112626FE06008901782
:1061B0005912627C800478FE79FF8E828F83A3A3BC
:1061C000A3A3A3A3A3E8F0A3E9126299E50AF0A3AD
:1061D000E50BF08E0A8F0B050890176DE0F8E508C7
:1061E000C398500479008029E508C398F9C3940640
:1061F000400279057800800FE50A2414F582E43521
:106200000B126291F50B0890176DE0FAE8C39A4003
:10621000E77509007809122A4A780A122A46E9F530
:10622000097809122A4A90176DE0F5097809122AAF
:106230004AAD087C007A647B17901762E0F9123946
:10624000A57405122A59901A06E060046401700BC7
:10625000EE4F6007EEFAEFFB123435123DBF7401CA
:10626000027BB01243C58A0C8B0DA80CA90D22121B
:106270003B85851882851983221262801277292234
:10628000E82414F582E439F58322127729901BB9AA
:1062900022F583E0F50AA3E022F0EE1277C422741F
:1062A000F012245B74FF122AED8A0A8B0B7E008E9B
:1062B0000E8E0F1263CA350BF583126500FFAC1802
:1062C000AD197A007B00799D123E258518828519CB
:1062D00083E0F8EFC3984003026374E0C39FFEC3FA
:1062E000940B40027E0AEE75F007A4FAABF012643C
:1062F000E48A0E8B0FEA4B6079750C00801A8508D2
:1063000082850983A3A3A3A3A37403F0E50824074C
:10631000F50850020509050CE50CC39E5056AC0863
:10632000AD09E50C2FFAE43400FB798B123E25858C
:106330000882850983A3A3A3A3A3E01460081460C3
:106340001314601F80B8850882850983A3A3A3A3C3
:10635000A3E480B7850882850983A3A3A3A3A374BC
:106360000180A8850882850983A3A3A3A3A374023F
:1063700080997E007508007808122A4A780E122A41
:1063800046EEF5087808122A4AEFF5087808122A2E
:106390004A7405122CFFE0FD7C00E50A1264EC351E
:1063A0000BFBE50A1264F1350BF583E0F91239B104
:1063B0007405122A59E50E450F6007AA0EAB0F129D
:1063C00034357401122A590254B1EA127AF5227452
:1063D000EE12245B74FE122AED8A0C8B0D751000F0
:1063E0007511001263CA350DF583126500F50AAC0C
:1063F00018AD197A007B0079A312410785188285B0
:10640000198312627CC3E50A98E4995020851882AA
:10641000851983A80AE0C398FEA3E09400FFC3EEA9
:106420009404EF940040617E037F00805F7E0075DE
:106430000B00EEF97508007808122A4A7810122A23
:1064400046E9F5087808122A4AE50AF5087808129C
:106450002A4A7405122CFFE0FDAC0BE50C1264EC2B
:10646000350DFBE50C1264F1350DF583E0F91239B9
:10647000B77405122A59E51045116007AA10AB112F
:106480001234357402027BE1EE4F60A3EEFAEFFBAB
:10649000EA75F015A4FAA8F075F015EBA4281264BB
:1064A000E38A108B11EA4B6032750B00750E00C346
:1064B000E50E9EE49F4003026432AC08AD09A80AD1
:1064C000E50E28FAE43400FB79A2124107E508241E
:1064D00015F50850020509050E80D4750BB5790035
:1064E000026434FB12342F8A088B09222402FAE456
:1064F000221264F522240FF582E422125B0AA3A380
:10650000125B08E02274F612245B74FF122AEDEA93
:10651000FEEBFF12672D12657B8A82F583A3A3A38E
:10652000A3A3A3A3A3E0F9123DDDE9851882851991
:1065300083F07508007808122A4A7401122AA78885
:106540000889097808122A4675083575098078087F
:10655000122A4612655E122A5974010255C7790142
:1065600012656AFAE43F12668822EE2402FCE43FD8
:10657000FDEE240F2285188285198312750022747E
:10658000F412245B74FA122AED1260E712669BEE95
:10659000FAEFFB123CB1E9600F12668FEEFAEFFBE7
:1065A00012353DE964017013901A06E0700302662B
:1065B0006C7401122CFFE4F0A380097401122CFF0B
:1065C000EEF0A3EFF0901A06E064027017850882DF
:1065D000850983A3A3126B59E0687003A3E0696087
:1065E0000302666C8E828F83A3A3A3A3A3A3A3A39A
:1065F000E0FEA2E650087403122CFF7401F0EEA234
:10660000E750087404122CFF7401F07405122CFF7B
:10661000E412694AF0F50A780A122A4A7401122A29
:10662000A7880A890B780A122A46750A34750B80E6
:10663000780A122A46126671122A5990816C122C1D
:10664000D01244CD7A007B001244D97A007B00122C
:1066500044D37401122AAF123E13EEA2E7400D7428
:1066600001122CFF1267417003124AC174060255D1
:10667000137901E5082402FCE43509FDE508240F3F
:10668000FAE4350912668822FB12390F74052212CA
:1066900044A98A0A8B0BAC0AAD0B22F583127A65EA
:1066A000FF2274F612245B74FF122AEDEAFEEBFF60
:1066B000901A06E07011901DEEE0700B8A828B83B9
:1066C000A3A3126741706312672D126500F5087469
:1066D000FF650870037508FEA908123DCBE985180F
:1066E00082851983F012420FE96005A908123A7DEC
:1066F000901A06E07005A908123A7DEE240B126B81
:106700004670277508007808122A4A7401122AA7D1
:10671000880889097808122A46750836750980782C
:1067200008122A4612655E122A59026559EA126752
